{
  "contractName": "Cryptowiz",
  "abi": [
    {
      "inputs": [],
      "stateMutability": "nonpayable",
      "type": "constructor"
    },
    {
      "anonymous": false,
      "inputs": [
        {
          "indexed": true,
          "internalType": "address",
          "name": "from",
          "type": "address"
        },
        {
          "indexed": true,
          "internalType": "address",
          "name": "to",
          "type": "address"
        },
        {
          "indexed": true,
          "internalType": "uint256",
          "name": "tokenId",
          "type": "uint256"
        }
      ],
      "name": "Tranfer",
      "type": "event"
    },
    {
      "inputs": [
        {
          "internalType": "uint256",
          "name": "",
          "type": "uint256"
        }
      ],
      "name": "Cryptowiz",
      "outputs": [
        {
          "internalType": "string",
          "name": "",
          "type": "string"
        }
      ],
      "stateMutability": "view",
      "type": "function",
      "constant": true
    },
    {
      "inputs": [
        {
          "internalType": "address",
          "name": "_owner",
          "type": "address"
        }
      ],
      "name": "balanceOf",
      "outputs": [
        {
          "internalType": "uint256",
          "name": "",
          "type": "uint256"
        }
      ],
      "stateMutability": "view",
      "type": "function",
      "constant": true
    },
    {
      "inputs": [],
      "name": "name",
      "outputs": [
        {
          "internalType": "string",
          "name": "",
          "type": "string"
        }
      ],
      "stateMutability": "view",
      "type": "function",
      "constant": true
    },
    {
      "inputs": [],
      "name": "owner",
      "outputs": [
        {
          "internalType": "address",
          "name": "",
          "type": "address"
        }
      ],
      "stateMutability": "view",
      "type": "function",
      "constant": true
    },
    {
      "inputs": [
        {
          "internalType": "uint256",
          "name": "_tokenId",
          "type": "uint256"
        }
      ],
      "name": "ownerOf",
      "outputs": [
        {
          "internalType": "address",
          "name": "",
          "type": "address"
        }
      ],
      "stateMutability": "view",
      "type": "function",
      "constant": true
    },
    {
      "inputs": [
        {
          "internalType": "bytes4",
          "name": "interfaceId",
          "type": "bytes4"
        }
      ],
      "name": "supportsInterface",
      "outputs": [
        {
          "internalType": "bool",
          "name": "",
          "type": "bool"
        }
      ],
      "stateMutability": "view",
      "type": "function",
      "constant": true
    },
    {
      "inputs": [],
      "name": "symbol",
      "outputs": [
        {
          "internalType": "string",
          "name": "",
          "type": "string"
        }
      ],
      "stateMutability": "view",
      "type": "function",
      "constant": true
    },
    {
      "inputs": [
        {
          "internalType": "uint256",
          "name": "index",
          "type": "uint256"
        }
      ],
      "name": "tokenByIndex",
      "outputs": [
        {
          "internalType": "uint256",
          "name": "",
          "type": "uint256"
        }
      ],
      "stateMutability": "view",
      "type": "function",
      "constant": true
    },
    {
      "inputs": [
        {
          "internalType": "address",
          "name": "owner",
          "type": "address"
        },
        {
          "internalType": "uint256",
          "name": "index",
          "type": "uint256"
        }
      ],
      "name": "tokenOfOwnerByIndex",
      "outputs": [
        {
          "internalType": "uint256",
          "name": "",
          "type": "uint256"
        }
      ],
      "stateMutability": "view",
      "type": "function",
      "constant": true
    },
    {
      "inputs": [],
      "name": "totalSupply",
      "outputs": [
        {
          "internalType": "uint256",
          "name": "",
          "type": "uint256"
        }
      ],
      "stateMutability": "view",
      "type": "function",
      "constant": true
    },
    {
      "inputs": [
        {
          "internalType": "address",
          "name": "_from",
          "type": "address"
        },
        {
          "internalType": "address",
          "name": "_to",
          "type": "address"
        },
        {
          "internalType": "uint256",
          "name": "_tokenId",
          "type": "uint256"
        }
      ],
      "name": "transferFrom",
      "outputs": [],
      "stateMutability": "nonpayable",
      "type": "function"
    },
    {
      "inputs": [
        {
          "internalType": "string",
          "name": "_cryptowiz",
          "type": "string"
        }
      ],
      "name": "mint",
      "outputs": [],
      "stateMutability": "nonpayable",
      "type": "function"
    }
  ],
  "bytecode": "0x60806040523480156200001157600080fd5b506040518060400160405280600e81526020017f4b6572766520646f6e6174696f6e0000000000000000000000000000000000008152506040518060400160405280600381526020017f62646300000000000000000000000000000000000000000000000000000000008152508181620000b17f01ffc9a7a5cef8baa21ed3c5c0d7e23accb804b619e9333b597f47a0d84076e26200025d60201b60201c565b8160019081620000c29190620005ae565b508060029081620000d49190620005ae565b50620001287f13b182f4c0e5b2efbac0efe6cf6d756c8b89f4b79c5707a043ed9ea740574ee97f7feaf19471f34a12a7eaf32d5f3090aa2260ea8624dc8a138e74e0bf0f623076186200025d60201b60201c565b505033600360006101000a81548173ffffffffffffffffffffffffffffffffffffffff021916908373ffffffffffffffffffffffffffffffffffffffff160217905550620001e07f1176b7b0bba5f97eb329b5b88bee81cec6bcd49a0d96c6c4ebe3c82134a0bc437f3a6eb71757dfc6e784c1459d26270140c2c147d95ca985c80026fc5301c3eca17f8a7e378434598edc36d108689a030cbc9d7d465de4f74c71bae1028eed6a881b18186200025d60201b60201c565b620002557f1176b7b0bba5f97eb329b5b88bee81cec6bcd49a0d96c6c4ebe3c82134a0bc437f3a6eb71757dfc6e784c1459d26270140c2c147d95ca985c80026fc5301c3eca17f8a7e378434598edc36d108689a030cbc9d7d465de4f74c71bae1028eed6a881b18186200025d60201b60201c565b505062000718565b63ffffffff60e01b817bffffffffffffffffffffffffffffffffffffffffffffffffffffffff191603620002c8576040517f08c379a0000000000000000000000000000000000000000000000000000000008152600401620002bf90620006f6565b60405180910390fd5b6001600080837bffffffffffffffffffffffffffffffffffffffffffffffffffffffff19167bffffffffffffffffffffffffffffffffffffffffffffffffffffffff1916815260200190815260200160002060006101000a81548160ff02191690831515021790555050565b600081519050919050565b7f4e487b7100000000000000000000000000000000000000000000000000000000600052604160045260246000fd5b7f4e487b7100000000000000000000000000000000000000000000000000000000600052602260045260246000fd5b60006002820490506001821680620003b657607f821691505b602082108103620003cc57620003cb6200036e565b5b50919050565b60008190508160005260206000209050919050565b60006020601f8301049050919050565b600082821b905092915050565b600060088302620004367fffffffffffffffffffffffffffffffffffffffffffffffffffffffffffffffff82620003f7565b620004428683620003f7565b95508019841693508086168417925050509392505050565b6000819050919050565b6000819050919050565b60006200048f6200048962000483846200045a565b62000464565b6200045a565b9050919050565b6000819050919050565b620004ab836200046e565b620004c3620004ba8262000496565b84845462000404565b825550505050565b600090565b620004da620004cb565b620004e7818484620004a0565b505050565b5b818110156200050f5762000503600082620004d0565b600181019050620004ed565b5050565b601f8211156200055e576200052881620003d2565b6200053384620003e7565b8101602085101562000543578190505b6200055b6200055285620003e7565b830182620004ec565b50505b505050565b600082821c905092915050565b6000620005836000198460080262000563565b1980831691505092915050565b60006200059e838362000570565b9150826002028217905092915050565b620005b98262000334565b67ffffffffffffffff811115620005d557620005d46200033f565b5b620005e182546200039d565b620005ee82828562000513565b600060209050601f83116001811462000626576000841562000611578287015190505b6200061d858262000590565b8655506200068d565b601f1984166200063686620003d2565b60005b82811015620006605784890151825560018201915060208501945060208101905062000639565b868310156200068057848901516200067c601f89168262000570565b8355505b6001600288020188555050505b505050505050565b600082825260208201905092915050565b7f696e76616c696420696e74657266616365207265717565737400000000000000600082015250565b6000620006de60198362000695565b9150620006eb82620006a6565b602082019050919050565b600060208201905081810360008301526200071181620006cf565b9050919050565b611cc380620007286000396000f3fe608060405234801561001057600080fd5b50600436106100b45760003560e01c80636352211e116100715780636352211e146101a157806370a08231146101d15780638da5cb5b1461020157806395d89b411461021f578063d85d3d271461023d578063f9b8c3bd14610259576100b4565b806301ffc9a7146100b957806306fdde03146100e957806318160ddd1461010757806323b872dd146101255780632f745c59146101415780634f6ccce714610171575b600080fd5b6100d360048036038101906100ce9190610f38565b610289565b6040516100e09190610f80565b60405180910390f35b6100f16102f0565b6040516100fe919061102b565b60405180910390f35b61010f610382565b60405161011c9190611066565b60405180910390f35b61013f600480360381019061013a919061110b565b61038f565b005b61015b6004803603810190610156919061115e565b61039f565b6040516101689190611066565b60405180910390f35b61018b6004803603810190610186919061119e565b61044f565b6040516101989190611066565b60405180910390f35b6101bb60048036038101906101b6919061119e565b6104be565b6040516101c891906111da565b60405180910390f35b6101eb60048036038101906101e691906111f5565b61056f565b6040516101f89190611066565b60405180910390f35b61020961062d565b60405161021691906111da565b60405180910390f35b610227610653565b604051610234919061102b565b60405180910390f35b61025760048036038101906102529190611357565b6106e5565b005b610273600480360381019061026e919061119e565b6107e1565b604051610280919061102b565b60405180910390f35b6000806000837bffffffffffffffffffffffffffffffffffffffffffffffffffffffff19167bffffffffffffffffffffffffffffffffffffffffffffffffffffffff1916815260200190815260200160002060009054906101000a900460ff169050919050565b6060600180546102ff906113cf565b80601f016020809104026020016040519081016040528092919081815260200182805461032b906113cf565b80156103785780601f1061034d57610100808354040283529160200191610378565b820191906000526020600020905b81548152906001019060200180831161035b57829003601f168201915b5050505050905090565b6000600680549050905090565b61039a83838361088d565b505050565b60006103aa8361056f565b82106103eb576040517f08c379a00000000000000000000000000000000000000000000000000000000081526004016103e29061144c565b60405180910390fd5b600860008473ffffffffffffffffffffffffffffffffffffffff1673ffffffffffffffffffffffffffffffffffffffff168152602001908152602001600020828154811061043c5761043b61146c565b5b9060005260206000200154905092915050565b60006006805490508210610498576040517f08c379a000000000000000000000000000000000000000000000000000000000815260040161048f906114e7565b60405180910390fd5b600682815481106104ac576104ab61146c565b5b90600052602060002001549050919050565b6000806004600084815260200190815260200160002060009054906101000a900473ffffffffffffffffffffffffffffffffffffffff169050600073ffffffffffffffffffffffffffffffffffffffff168173ffffffffffffffffffffffffffffffffffffffff1603610566576040517f08c379a000000000000000000000000000000000000000000000000000000000815260040161055d90611579565b60405180910390fd5b80915050919050565b60008073ffffffffffffffffffffffffffffffffffffffff168273ffffffffffffffffffffffffffffffffffffffff16036105df576040517f08c379a00000000000000000000000000000000000000000000000000000000081526004016105d69061160b565b60405180910390fd5b610626600560008473ffffffffffffffffffffffffffffffffffffffff1673ffffffffffffffffffffffffffffffffffffffff168152602001908152602001600020610a3c565b9050919050565b600360009054906101000a900473ffffffffffffffffffffffffffffffffffffffff1681565b606060028054610662906113cf565b80601f016020809104026020016040519081016040528092919081815260200182805461068e906113cf565b80156106db5780601f106106b0576101008083540402835291602001916106db565b820191906000526020600020905b8154815290600101906020018083116106be57829003601f168201915b5050505050905090565b600b816040516106f59190611667565b908152602001604051809103902060009054906101000a900460ff1615610751576040517f08c379a0000000000000000000000000000000000000000000000000000000008152600401610748906116ca565b60405180910390fd5b600a819080600181540180825580915050600190039060005260206000200160009091909190915090816107859190611896565b5060006001600a8054905061079a9190611997565b90506107a63382610a4a565b6001600b836040516107b89190611667565b908152602001604051809103902060006101000a81548160ff0219169083151502179055505050565b600a81815481106107f157600080fd5b90600052602060002001600091509050805461080c906113cf565b80601f0160208091040260200160405190810160405280929190818152602001828054610838906113cf565b80156108855780601f1061085a57610100808354040283529160200191610885565b820191906000526020600020905b81548152906001019060200180831161086857829003601f168201915b505050505081565b600073ffffffffffffffffffffffffffffffffffffffff168273ffffffffffffffffffffffffffffffffffffffff16036108fc576040517f08c379a00000000000000000000000000000000000000000000000000000000081526004016108f390611a3d565b60405180910390fd5b610943600560008573ffffffffffffffffffffffffffffffffffffffff1673ffffffffffffffffffffffffffffffffffffffff168152602001908152602001600020610a6b565b61098a600560008473ffffffffffffffffffffffffffffffffffffffff1673ffffffffffffffffffffffffffffffffffffffff168152602001908152602001600020610a8e565b816004600083815260200190815260200160002060006101000a81548173ffffffffffffffffffffffffffffffffffffffff021916908373ffffffffffffffffffffffffffffffffffffffff160217905550808273ffffffffffffffffffffffffffffffffffffffff168473ffffffffffffffffffffffffffffffffffffffff167f5225eac2a7facfbeb099c00a4cc7c457701324f1fd84b84b14033f9e911374a460405160405180910390a4505050565b600081600001549050919050565b610a548282610aad565b610a5d81610cee565b610a678282610d37565b5050565b610a8360018260000154610dfb90919063ffffffff16565b816000018190555050565b6001816000016000828254610aa39190611a5d565b9250508190555050565b600073ffffffffffffffffffffffffffffffffffffffff168273ffffffffffffffffffffffffffffffffffffffff1603610b1c576040517f08c379a0000000000000000000000000000000000000000000000000000000008152600401610b1390611b03565b60405180910390fd5b600360009054906101000a900473ffffffffffffffffffffffffffffffffffffffff1673ffffffffffffffffffffffffffffffffffffffff163373ffffffffffffffffffffffffffffffffffffffff1614610bac576040517f08c379a0000000000000000000000000000000000000000000000000000000008152600401610ba390611b95565b60405180910390fd5b610bb581610e5a565b15610bf5576040517f08c379a0000000000000000000000000000000000000000000000000000000008152600401610bec90611c01565b60405180910390fd5b816004600083815260200190815260200160002060006101000a81548173ffffffffffffffffffffffffffffffffffffffff021916908373ffffffffffffffffffffffffffffffffffffffff160217905550610c8e600560008473ffffffffffffffffffffffffffffffffffffffff1673ffffffffffffffffffffffffffffffffffffffff168152602001908152602001600020610a8e565b808273ffffffffffffffffffffffffffffffffffffffff16600073ffffffffffffffffffffffffffffffffffffffff167f5225eac2a7facfbeb099c00a4cc7c457701324f1fd84b84b14033f9e911374a460405160405180910390a45050565b6006805490506007600083815260200190815260200160002081905550600681908060018154018082558091505060019003906000526020600020016000909190919091505550565b600860008373ffffffffffffffffffffffffffffffffffffffff1673ffffffffffffffffffffffffffffffffffffffff168152602001908152602001600020805490506009600083815260200190815260200160002081905550600860008373ffffffffffffffffffffffffffffffffffffffff1673ffffffffffffffffffffffffffffffffffffffff1681526020019081526020016000208190806001815401808255809150506001900390600052602060002001600090919091909150555050565b600082821115610e40576040517f08c379a0000000000000000000000000000000000000000000000000000000008152600401610e3790611c6d565b60405180910390fd5b60008284610e4e9190611997565b90508091505092915050565b6000806004600084815260200190815260200160002060009054906101000a900473ffffffffffffffffffffffffffffffffffffffff169050600073ffffffffffffffffffffffffffffffffffffffff168173ffffffffffffffffffffffffffffffffffffffff161415915050919050565b6000604051905090565b600080fd5b600080fd5b60007fffffffff0000000000000000000000000000000000000000000000000000000082169050919050565b610f1581610ee0565b8114610f2057600080fd5b50565b600081359050610f3281610f0c565b92915050565b600060208284031215610f4e57610f4d610ed6565b5b6000610f5c84828501610f23565b91505092915050565b60008115159050919050565b610f7a81610f65565b82525050565b6000602082019050610f956000830184610f71565b92915050565b600081519050919050565b600082825260208201905092915050565b60005b83811015610fd5578082015181840152602081019050610fba565b60008484015250505050565b6000601f19601f8301169050919050565b6000610ffd82610f9b565b6110078185610fa6565b9350611017818560208601610fb7565b61102081610fe1565b840191505092915050565b600060208201905081810360008301526110458184610ff2565b905092915050565b6000819050919050565b6110608161104d565b82525050565b600060208201905061107b6000830184611057565b92915050565b600073ffffffffffffffffffffffffffffffffffffffff82169050919050565b60006110ac82611081565b9050919050565b6110bc816110a1565b81146110c757600080fd5b50565b6000813590506110d9816110b3565b92915050565b6110e88161104d565b81146110f357600080fd5b50565b600081359050611105816110df565b92915050565b60008060006060848603121561112457611123610ed6565b5b6000611132868287016110ca565b9350506020611143868287016110ca565b9250506040611154868287016110f6565b9150509250925092565b6000806040838503121561117557611174610ed6565b5b6000611183858286016110ca565b9250506020611194858286016110f6565b9150509250929050565b6000602082840312156111b4576111b3610ed6565b5b60006111c2848285016110f6565b91505092915050565b6111d4816110a1565b82525050565b60006020820190506111ef60008301846111cb565b92915050565b60006020828403121561120b5761120a610ed6565b5b6000611219848285016110ca565b91505092915050565b600080fd5b600080fd5b7f4e487b7100000000000000000000000000000000000000000000000000000000600052604160045260246000fd5b61126482610fe1565b810181811067ffffffffffffffff821117156112835761128261122c565b5b80604052505050565b6000611296610ecc565b90506112a2828261125b565b919050565b600067ffffffffffffffff8211156112c2576112c161122c565b5b6112cb82610fe1565b9050602081019050919050565b82818337600083830152505050565b60006112fa6112f5846112a7565b61128c565b90508281526020810184848401111561131657611315611227565b5b6113218482856112d8565b509392505050565b600082601f83011261133e5761133d611222565b5b813561134e8482602086016112e7565b91505092915050565b60006020828403121561136d5761136c610ed6565b5b600082013567ffffffffffffffff81111561138b5761138a610edb565b5b61139784828501611329565b91505092915050565b7f4e487b7100000000000000000000000000000000000000000000000000000000600052602260045260246000fd5b600060028204905060018216806113e757607f821691505b6020821081036113fa576113f96113a0565b5b50919050565b7f6f776e657220696e646578206f7574206f662072616e67650000000000000000600082015250565b6000611436601883610fa6565b915061144182611400565b602082019050919050565b6000602082019050818103600083015261146581611429565b9050919050565b7f4e487b7100000000000000000000000000000000000000000000000000000000600052603260045260246000fd5b7f676c6f62616c20696e646578206f7574206f6620626f756e6400000000000000600082015250565b60006114d1601983610fa6565b91506114dc8261149b565b602082019050919050565b60006020820190508181036000830152611500816114c4565b9050919050565b7f455243373231203a206f776e657220717565727920666f72206e6f6e2d65786960008201527f7374656e7420746f6b656e000000000000000000000000000000000000000000602082015250565b6000611563602b83610fa6565b915061156e82611507565b604082019050919050565b6000602082019050818103600083015261159281611556565b9050919050565b7f4552433732313a204e4654732061737369676e656420746f20746865207a657260008201527f6f20616464726573730000000000000000000000000000000000000000000000602082015250565b60006115f5602983610fa6565b915061160082611599565b604082019050919050565b60006020820190508181036000830152611624816115e8565b9050919050565b600081905092915050565b600061164182610f9b565b61164b818561162b565b935061165b818560208601610fb7565b80840191505092915050565b60006116738284611636565b915081905092915050565b7f4572726f72202d2063727970746f77697a20616c726561647920657869737473600082015250565b60006116b4602083610fa6565b91506116bf8261167e565b602082019050919050565b600060208201905081810360008301526116e3816116a7565b9050919050565b60008190508160005260206000209050919050565b60006020601f8301049050919050565b600082821b905092915050565b60006008830261174c7fffffffffffffffffffffffffffffffffffffffffffffffffffffffffffffffff8261170f565b611756868361170f565b95508019841693508086168417925050509392505050565b6000819050919050565b600061179361178e6117898461104d565b61176e565b61104d565b9050919050565b6000819050919050565b6117ad83611778565b6117c16117b98261179a565b84845461171c565b825550505050565b600090565b6117d66117c9565b6117e18184846117a4565b505050565b5b81811015611805576117fa6000826117ce565b6001810190506117e7565b5050565b601f82111561184a5761181b816116ea565b611824846116ff565b81016020851015611833578190505b61184761183f856116ff565b8301826117e6565b50505b505050565b600082821c905092915050565b600061186d6000198460080261184f565b1980831691505092915050565b6000611886838361185c565b9150826002028217905092915050565b61189f82610f9b565b67ffffffffffffffff8111156118b8576118b761122c565b5b6118c282546113cf565b6118cd828285611809565b600060209050601f83116001811461190057600084156118ee578287015190505b6118f8858261187a565b865550611960565b601f19841661190e866116ea565b60005b8281101561193657848901518255600182019150602085019450602081019050611911565b86831015611953578489015161194f601f89168261185c565b8355505b6001600288020188555050505b505050505050565b7f4e487b7100000000000000000000000000000000000000000000000000000000600052601160045260246000fd5b60006119a28261104d565b91506119ad8361104d565b92508282039050818111156119c5576119c4611968565b5b92915050565b7f4572726f723a20455243373231205472616e7366657220746f20746865207a6560008201527f726f206164647265737300000000000000000000000000000000000000000000602082015250565b6000611a27602a83610fa6565b9150611a32826119cb565b604082019050919050565b60006020820190508181036000830152611a5681611a1a565b9050919050565b6000611a688261104d565b9150611a738361104d565b9250828201905080821115611a8b57611a8a611968565b5b92915050565b7f4552433732313a206d696e74696e6720746f20746865207a65726f206164647260008201527f6573730000000000000000000000000000000000000000000000000000000000602082015250565b6000611aed602383610fa6565b9150611af882611a91565b604082019050919050565b60006020820190508181036000830152611b1c81611ae0565b9050919050565b7f4552433732313a20796f7520617265206e6f7420746865206f776e6572206f6660008201527f2074686520636f6e747261637400000000000000000000000000000000000000602082015250565b6000611b7f602d83610fa6565b9150611b8a82611b23565b604082019050919050565b60006020820190508181036000830152611bae81611b72565b9050919050565b7f4552433732313a20746f6b656e20616c7265616479206d696e74656400000000600082015250565b6000611beb601c83610fa6565b9150611bf682611bb5565b602082019050919050565b60006020820190508181036000830152611c1a81611bde565b9050919050565b7f536166654d6174683a205375627472616374696f6e204f766572666c6f770000600082015250565b6000611c57601e83610fa6565b9150611c6282611c21565b602082019050919050565b60006020820190508181036000830152611c8681611c4a565b905091905056fea2646970667358221220d4f4e83275f889ad4145fc8c4b6698fcf14bde402add59325908bee821df92ae64736f6c63430008130033",
  "immutableReferences": {},
  "source": "// SPDX-License-Identifier: MIT\r\n\r\npragma solidity ^0.8.0;\r\n\r\nimport \"./ERC721Connector.sol\";\r\ncontract Cryptowiz is ERC721Connector{\r\n    //array to store nfts\r\n    string [] public Cryptowiz;\r\n\r\n    mapping (string => bool )  _cryptowizExists;\r\n\r\n    function mint(string memory _cryptowiz) public {\r\n\r\n        require(!_cryptowizExists[_cryptowiz],\"Error - cryptowiz already exists\");\r\n        // this is deprecated uint _id = Cryptowiz.push(_cryptowiz);\r\n\r\n        Cryptowiz.push(_cryptowiz);\r\n        uint _id = Cryptowiz.length -1;\r\n\r\n        _mint (msg.sender, _id);\r\n\r\n        _cryptowizExists[_cryptowiz] = true;\r\n    }\r\n    constructor() ERC721Connector(\"Kerve donation\",\"bdc\"){\r\n        \r\n    } \r\n} ",
  "sourcePath": "D:\\nft-space\\truffle\\contracts\\Cryptowiz.sol",
  "compiler": {
    "name": "solc",
    "version": "0.8.19+commit.7dd6d404.Emscripten.clang"
  },
  "schemaVersion": "3.4.9",
  "updatedAt": "2023-03-17T11:15:51.824Z",
  "networkType": "ethereum",
  "devdoc": {
    "kind": "dev",
    "methods": {},
    "version": 1
  },
  "userdoc": {
    "kind": "user",
    "methods": {},
    "version": 1
  }
}