{
  "contractName": "ERC721",
  "abi": [
    {
      "inputs": [],
      "stateMutability": "nonpayable",
      "type": "constructor"
    },
    {
      "anonymous": false,
      "inputs": [
        {
          "indexed": true,
          "internalType": "address",
          "name": "from",
          "type": "address"
        },
        {
          "indexed": true,
          "internalType": "address",
          "name": "to",
          "type": "address"
        },
        {
          "indexed": true,
          "internalType": "uint256",
          "name": "tokenId",
          "type": "uint256"
        }
      ],
      "name": "Tranfer",
      "type": "event"
    },
    {
      "inputs": [],
      "name": "owner",
      "outputs": [
        {
          "internalType": "address",
          "name": "",
          "type": "address"
        }
      ],
      "stateMutability": "view",
      "type": "function"
    },
    {
      "inputs": [
        {
          "internalType": "bytes4",
          "name": "interfaceId",
          "type": "bytes4"
        }
      ],
      "name": "supportsInterface",
      "outputs": [
        {
          "internalType": "bool",
          "name": "",
          "type": "bool"
        }
      ],
      "stateMutability": "view",
      "type": "function"
    },
    {
      "inputs": [
        {
          "internalType": "address",
          "name": "_owner",
          "type": "address"
        }
      ],
      "name": "balanceOf",
      "outputs": [
        {
          "internalType": "uint256",
          "name": "",
          "type": "uint256"
        }
      ],
      "stateMutability": "view",
      "type": "function"
    },
    {
      "inputs": [
        {
          "internalType": "uint256",
          "name": "_tokenId",
          "type": "uint256"
        }
      ],
      "name": "ownerOf",
      "outputs": [
        {
          "internalType": "address",
          "name": "",
          "type": "address"
        }
      ],
      "stateMutability": "view",
      "type": "function"
    },
    {
      "inputs": [
        {
          "internalType": "address",
          "name": "_from",
          "type": "address"
        },
        {
          "internalType": "address",
          "name": "_to",
          "type": "address"
        },
        {
          "internalType": "uint256",
          "name": "_tokenId",
          "type": "uint256"
        }
      ],
      "name": "transferFrom",
      "outputs": [],
      "stateMutability": "nonpayable",
      "type": "function"
    }
  ],
  "bytecode": "0x608060405234801561001057600080fd5b506100407f01ffc9a7a5cef8baa21ed3c5c0d7e23accb804b619e9333b597f47a0d84076e26100f960201b60201c565b33600160006101000a81548173ffffffffffffffffffffffffffffffffffffffff021916908373ffffffffffffffffffffffffffffffffffffffff1602179055506100f47f1176b7b0bba5f97eb329b5b88bee81cec6bcd49a0d96c6c4ebe3c82134a0bc437f3a6eb71757dfc6e784c1459d26270140c2c147d95ca985c80026fc5301c3eca17f8a7e378434598edc36d108689a030cbc9d7d465de4f74c71bae1028eed6a881b18186100f960201b60201c565b61024a565b63ffffffff60e01b817bffffffffffffffffffffffffffffffffffffffffffffffffffffffff191603610161576040517f08c379a00000000000000000000000000000000000000000000000000000000081526004016101589061022a565b60405180910390fd5b6001600080837bffffffffffffffffffffffffffffffffffffffffffffffffffffffff19167bffffffffffffffffffffffffffffffffffffffffffffffffffffffff1916815260200190815260200160002060006101000a81548160ff02191690831515021790555050565b600082825260208201905092915050565b7f696e76616c696420696e74657266616365207265717565737400000000000000600082015250565b60006102146019836101cd565b915061021f826101de565b602082019050919050565b6000602082019050818103600083015261024381610207565b9050919050565b610ae5806102596000396000f3fe608060405234801561001057600080fd5b50600436106100575760003560e01c806301ffc9a71461005c57806323b872dd1461008c5780636352211e146100a857806370a08231146100d85780638da5cb5b14610108575b600080fd5b610076600480360381019061007191906105ed565b610126565b6040516100839190610635565b60405180910390f35b6100a660048036038101906100a191906106e4565b61018d565b005b6100c260048036038101906100bd9190610737565b61019d565b6040516100cf9190610773565b60405180910390f35b6100f260048036038101906100ed919061078e565b61024e565b6040516100ff91906107ca565b60405180910390f35b61011061030c565b60405161011d9190610773565b60405180910390f35b6000806000837bffffffffffffffffffffffffffffffffffffffffffffffffffffffff19167bffffffffffffffffffffffffffffffffffffffffffffffffffffffff1916815260200190815260200160002060009054906101000a900460ff169050919050565b610198838383610332565b505050565b6000806002600084815260200190815260200160002060009054906101000a900473ffffffffffffffffffffffffffffffffffffffff169050600073ffffffffffffffffffffffffffffffffffffffff168173ffffffffffffffffffffffffffffffffffffffff1603610245576040517f08c379a000000000000000000000000000000000000000000000000000000000815260040161023c90610868565b60405180910390fd5b80915050919050565b60008073ffffffffffffffffffffffffffffffffffffffff168273ffffffffffffffffffffffffffffffffffffffff16036102be576040517f08c379a00000000000000000000000000000000000000000000000000000000081526004016102b5906108fa565b60405180910390fd5b610305600360008473ffffffffffffffffffffffffffffffffffffffff1673ffffffffffffffffffffffffffffffffffffffff1681526020019081526020016000206104e1565b9050919050565b600160009054906101000a900473ffffffffffffffffffffffffffffffffffffffff1681565b600073ffffffffffffffffffffffffffffffffffffffff168273ffffffffffffffffffffffffffffffffffffffff16036103a1576040517f08c379a00000000000000000000000000000000000000000000000000000000081526004016103989061098c565b60405180910390fd5b6103e8600360008573ffffffffffffffffffffffffffffffffffffffff1673ffffffffffffffffffffffffffffffffffffffff1681526020019081526020016000206104ef565b61042f600360008473ffffffffffffffffffffffffffffffffffffffff1673ffffffffffffffffffffffffffffffffffffffff168152602001908152602001600020610512565b816002600083815260200190815260200160002060006101000a81548173ffffffffffffffffffffffffffffffffffffffff021916908373ffffffffffffffffffffffffffffffffffffffff160217905550808273ffffffffffffffffffffffffffffffffffffffff168473ffffffffffffffffffffffffffffffffffffffff167f5225eac2a7facfbeb099c00a4cc7c457701324f1fd84b84b14033f9e911374a460405160405180910390a4505050565b600081600001549050919050565b6105076001826000015461053190919063ffffffff16565b816000018190555050565b600181600001600082825461052791906109db565b9250508190555050565b600082821115610576576040517f08c379a000000000000000000000000000000000000000000000000000000000815260040161056d90610a5b565b60405180910390fd5b600082846105849190610a7b565b90508091505092915050565b600080fd5b60007fffffffff0000000000000000000000000000000000000000000000000000000082169050919050565b6105ca81610595565b81146105d557600080fd5b50565b6000813590506105e7816105c1565b92915050565b60006020828403121561060357610602610590565b5b6000610611848285016105d8565b91505092915050565b60008115159050919050565b61062f8161061a565b82525050565b600060208201905061064a6000830184610626565b92915050565b600073ffffffffffffffffffffffffffffffffffffffff82169050919050565b600061067b82610650565b9050919050565b61068b81610670565b811461069657600080fd5b50565b6000813590506106a881610682565b92915050565b6000819050919050565b6106c1816106ae565b81146106cc57600080fd5b50565b6000813590506106de816106b8565b92915050565b6000806000606084860312156106fd576106fc610590565b5b600061070b86828701610699565b935050602061071c86828701610699565b925050604061072d868287016106cf565b9150509250925092565b60006020828403121561074d5761074c610590565b5b600061075b848285016106cf565b91505092915050565b61076d81610670565b82525050565b60006020820190506107886000830184610764565b92915050565b6000602082840312156107a4576107a3610590565b5b60006107b284828501610699565b91505092915050565b6107c4816106ae565b82525050565b60006020820190506107df60008301846107bb565b92915050565b600082825260208201905092915050565b7f455243373231203a206f776e657220717565727920666f72206e6f6e2d65786960008201527f7374656e7420746f6b656e000000000000000000000000000000000000000000602082015250565b6000610852602b836107e5565b915061085d826107f6565b604082019050919050565b6000602082019050818103600083015261088181610845565b9050919050565b7f4552433732313a204e4654732061737369676e656420746f20746865207a657260008201527f6f20616464726573730000000000000000000000000000000000000000000000602082015250565b60006108e46029836107e5565b91506108ef82610888565b604082019050919050565b60006020820190508181036000830152610913816108d7565b9050919050565b7f4572726f723a20455243373231205472616e7366657220746f20746865207a6560008201527f726f206164647265737300000000000000000000000000000000000000000000602082015250565b6000610976602a836107e5565b91506109818261091a565b604082019050919050565b600060208201905081810360008301526109a581610969565b9050919050565b7f4e487b7100000000000000000000000000000000000000000000000000000000600052601160045260246000fd5b60006109e6826106ae565b91506109f1836106ae565b9250828201905080821115610a0957610a086109ac565b5b92915050565b7f536166654d6174683a205375627472616374696f6e204f766572666c6f770000600082015250565b6000610a45601e836107e5565b9150610a5082610a0f565b602082019050919050565b60006020820190508181036000830152610a7481610a38565b9050919050565b6000610a86826106ae565b9150610a91836106ae565b9250828203905081811115610aa957610aa86109ac565b5b9291505056fea2646970667358221220fa99a603278bd8c9d59d82b261215019aa95afa09ff71594903ec1ccd6a8b90764736f6c63430008130033",
  "immutableReferences": {},
  "source": "//SPDX-License-Identifier: MIT\r\n\r\npragma solidity ^0.8.0;\r\n\r\nimport \"./interfaces/IERC165.sol\";\r\nimport \"./ERC165.sol\";\r\nimport \"./interfaces/IERC721.sol\";\r\nimport \"./libraries/Counters.sol\"; \r\n\r\ncontract ERC721 is ERC165,IERC721{\r\n    using SafeMath for uint256;\r\n    using Counters for Counters.Counter;\r\n\r\n    address public owner;\r\n\r\n    mapping(uint256 =>address) private _tokenOwner;\r\n    mapping (address =>Counters.Counter) private _ownedTokensCount;\r\n    constructor(){\r\n         owner = msg.sender;\r\n\r\n         _registerInterface(bytes4(keccak256(\"balanceOf(bytes4)\")^\r\n         keccak256('ownerOf(bytes4)') ^ keccak256('tranferFrom(bytes4)')));\r\n    }\r\n\r\n    function balanceOf(address _owner) public view override returns (uint256){\r\n         require(_owner !=address(0),\"ERC721: NFTs assigned to the zero address\");\r\n         return _ownedTokensCount[_owner].current();\r\n\r\n    }\r\n\r\n    function ownerOf(uint256 _tokenId) external view override returns (address){\r\n        address ownerOfNft = _tokenOwner[_tokenId];\r\n        require(ownerOfNft != address(0),\"ERC721 : owner query for non-existent token\");\r\n        return ownerOfNft;\r\n    }\r\n\r\n    function _exists(uint256 tokenId) internal view returns (bool){\r\n        address Own = _tokenOwner[tokenId];\r\n        return Own != address(0);\r\n    }\r\n\r\n    function _mint(address to ,uint256 tokenId) internal virtual{\r\n        require(to!= address(0),\"ERC721: minting to the zero address\");\r\n        require (msg.sender == owner,\"ERC721: you are not the owner of the contract\");\r\n\r\n        //check that the token does not already exists\r\n        require(!_exists(tokenId),\"ERC721: token already minted\");\r\n        _tokenOwner[tokenId] = to; \r\n        _ownedTokensCount[to].increment();\r\n\r\n        emit Tranfer(address(0), to , tokenId );\r\n\r\n    }\r\n\r\n    function _transferFrom(address _from, address _to, uint256 _tokenId) internal{\r\n        require(_to!= address(0),\"Error: ERC721 Transfer to the zero address\");\r\n        //require(ownerOf(_tokenId) ==_from,\"Trying to transfer a token failed as you are not the owner\");\r\n\r\n        _ownedTokensCount[_from].decrement();\r\n        _ownedTokensCount[_to].increment();\r\n\r\n        _tokenOwner[_tokenId] = _to;\r\n\r\n        emit Tranfer(_from,_to,_tokenId);\r\n    }\r\n\r\n    function transferFrom(address _from, address _to,uint256 _tokenId) override public {\r\n        _transferFrom(_from, _to, _tokenId);\r\n    }\r\n}",
  "sourcePath": "D:\\nft-space\\truffle\\contracts\\ERC721.sol",
  "compiler": {
    "name": "solc",
    "version": "0.8.19+commit.7dd6d404.Emscripten.clang"
  },
  "schemaVersion": "3.4.9",
  "updatedAt": "2023-03-17T11:15:27.844Z",
  "devdoc": {
    "kind": "dev",
    "methods": {},
    "version": 1
  },
  "userdoc": {
    "kind": "user",
    "methods": {},
    "version": 1
  }
}