{
  "contractName": "ERC721Connector",
  "abi": [
    {
      "inputs": [
        {
          "internalType": "string",
          "name": "name",
          "type": "string"
        },
        {
          "internalType": "string",
          "name": "symbol",
          "type": "string"
        }
      ],
      "stateMutability": "nonpayable",
      "type": "constructor"
    },
    {
      "anonymous": false,
      "inputs": [
        {
          "indexed": true,
          "internalType": "address",
          "name": "from",
          "type": "address"
        },
        {
          "indexed": true,
          "internalType": "address",
          "name": "to",
          "type": "address"
        },
        {
          "indexed": true,
          "internalType": "uint256",
          "name": "tokenId",
          "type": "uint256"
        }
      ],
      "name": "Tranfer",
      "type": "event"
    },
    {
      "inputs": [
        {
          "internalType": "address",
          "name": "_owner",
          "type": "address"
        }
      ],
      "name": "balanceOf",
      "outputs": [
        {
          "internalType": "uint256",
          "name": "",
          "type": "uint256"
        }
      ],
      "stateMutability": "view",
      "type": "function"
    },
    {
      "inputs": [],
      "name": "name",
      "outputs": [
        {
          "internalType": "string",
          "name": "",
          "type": "string"
        }
      ],
      "stateMutability": "view",
      "type": "function"
    },
    {
      "inputs": [],
      "name": "owner",
      "outputs": [
        {
          "internalType": "address",
          "name": "",
          "type": "address"
        }
      ],
      "stateMutability": "view",
      "type": "function"
    },
    {
      "inputs": [
        {
          "internalType": "uint256",
          "name": "_tokenId",
          "type": "uint256"
        }
      ],
      "name": "ownerOf",
      "outputs": [
        {
          "internalType": "address",
          "name": "",
          "type": "address"
        }
      ],
      "stateMutability": "view",
      "type": "function"
    },
    {
      "inputs": [
        {
          "internalType": "bytes4",
          "name": "interfaceId",
          "type": "bytes4"
        }
      ],
      "name": "supportsInterface",
      "outputs": [
        {
          "internalType": "bool",
          "name": "",
          "type": "bool"
        }
      ],
      "stateMutability": "view",
      "type": "function"
    },
    {
      "inputs": [],
      "name": "symbol",
      "outputs": [
        {
          "internalType": "string",
          "name": "",
          "type": "string"
        }
      ],
      "stateMutability": "view",
      "type": "function"
    },
    {
      "inputs": [
        {
          "internalType": "uint256",
          "name": "index",
          "type": "uint256"
        }
      ],
      "name": "tokenByIndex",
      "outputs": [
        {
          "internalType": "uint256",
          "name": "",
          "type": "uint256"
        }
      ],
      "stateMutability": "view",
      "type": "function"
    },
    {
      "inputs": [
        {
          "internalType": "address",
          "name": "owner",
          "type": "address"
        },
        {
          "internalType": "uint256",
          "name": "index",
          "type": "uint256"
        }
      ],
      "name": "tokenOfOwnerByIndex",
      "outputs": [
        {
          "internalType": "uint256",
          "name": "",
          "type": "uint256"
        }
      ],
      "stateMutability": "view",
      "type": "function"
    },
    {
      "inputs": [],
      "name": "totalSupply",
      "outputs": [
        {
          "internalType": "uint256",
          "name": "",
          "type": "uint256"
        }
      ],
      "stateMutability": "view",
      "type": "function"
    },
    {
      "inputs": [
        {
          "internalType": "address",
          "name": "_from",
          "type": "address"
        },
        {
          "internalType": "address",
          "name": "_to",
          "type": "address"
        },
        {
          "internalType": "uint256",
          "name": "_tokenId",
          "type": "uint256"
        }
      ],
      "name": "transferFrom",
      "outputs": [],
      "stateMutability": "nonpayable",
      "type": "function"
    }
  ],
  "bytecode": "0x60806040523480156200001157600080fd5b506040516200194838038062001948833981810160405281019062000037919062000480565b81816200006a7f01ffc9a7a5cef8baa21ed3c5c0d7e23accb804b619e9333b597f47a0d84076e26200021660201b60201c565b81600190816200007b919062000750565b5080600290816200008d919062000750565b50620000e17f13b182f4c0e5b2efbac0efe6cf6d756c8b89f4b79c5707a043ed9ea740574ee97f7feaf19471f34a12a7eaf32d5f3090aa2260ea8624dc8a138e74e0bf0f623076186200021660201b60201c565b505033600360006101000a81548173ffffffffffffffffffffffffffffffffffffffff021916908373ffffffffffffffffffffffffffffffffffffffff160217905550620001997f1176b7b0bba5f97eb329b5b88bee81cec6bcd49a0d96c6c4ebe3c82134a0bc437f3a6eb71757dfc6e784c1459d26270140c2c147d95ca985c80026fc5301c3eca17f8a7e378434598edc36d108689a030cbc9d7d465de4f74c71bae1028eed6a881b18186200021660201b60201c565b6200020e7f1176b7b0bba5f97eb329b5b88bee81cec6bcd49a0d96c6c4ebe3c82134a0bc437f3a6eb71757dfc6e784c1459d26270140c2c147d95ca985c80026fc5301c3eca17f8a7e378434598edc36d108689a030cbc9d7d465de4f74c71bae1028eed6a881b18186200021660201b60201c565b5050620008ba565b63ffffffff60e01b817bffffffffffffffffffffffffffffffffffffffffffffffffffffffff19160362000281576040517f08c379a0000000000000000000000000000000000000000000000000000000008152600401620002789062000898565b60405180910390fd5b6001600080837bffffffffffffffffffffffffffffffffffffffffffffffffffffffff19167bffffffffffffffffffffffffffffffffffffffffffffffffffffffff1916815260200190815260200160002060006101000a81548160ff02191690831515021790555050565b6000604051905090565b600080fd5b600080fd5b600080fd5b600080fd5b6000601f19601f8301169050919050565b7f4e487b7100000000000000000000000000000000000000000000000000000000600052604160045260246000fd5b62000356826200030b565b810181811067ffffffffffffffff821117156200037857620003776200031c565b5b80604052505050565b60006200038d620002ed565b90506200039b82826200034b565b919050565b600067ffffffffffffffff821115620003be57620003bd6200031c565b5b620003c9826200030b565b9050602081019050919050565b60005b83811015620003f6578082015181840152602081019050620003d9565b60008484015250505050565b6000620004196200041384620003a0565b62000381565b90508281526020810184848401111562000438576200043762000306565b5b62000445848285620003d6565b509392505050565b600082601f83011262000465576200046462000301565b5b81516200047784826020860162000402565b91505092915050565b600080604083850312156200049a5762000499620002f7565b5b600083015167ffffffffffffffff811115620004bb57620004ba620002fc565b5b620004c9858286016200044d565b925050602083015167ffffffffffffffff811115620004ed57620004ec620002fc565b5b620004fb858286016200044d565b9150509250929050565b600081519050919050565b7f4e487b7100000000000000000000000000000000000000000000000000000000600052602260045260246000fd5b600060028204905060018216806200055857607f821691505b6020821081036200056e576200056d62000510565b5b50919050565b60008190508160005260206000209050919050565b60006020601f8301049050919050565b600082821b905092915050565b600060088302620005d87fffffffffffffffffffffffffffffffffffffffffffffffffffffffffffffffff8262000599565b620005e4868362000599565b95508019841693508086168417925050509392505050565b6000819050919050565b6000819050919050565b6000620006316200062b6200062584620005fc565b62000606565b620005fc565b9050919050565b6000819050919050565b6200064d8362000610565b620006656200065c8262000638565b848454620005a6565b825550505050565b600090565b6200067c6200066d565b6200068981848462000642565b505050565b5b81811015620006b157620006a560008262000672565b6001810190506200068f565b5050565b601f8211156200070057620006ca8162000574565b620006d58462000589565b81016020851015620006e5578190505b620006fd620006f48562000589565b8301826200068e565b50505b505050565b600082821c905092915050565b6000620007256000198460080262000705565b1980831691505092915050565b600062000740838362000712565b9150826002028217905092915050565b6200075b8262000505565b67ffffffffffffffff8111156200077757620007766200031c565b5b6200078382546200053f565b62000790828285620006b5565b600060209050601f831160018114620007c85760008415620007b3578287015190505b620007bf858262000732565b8655506200082f565b601f198416620007d88662000574565b60005b828110156200080257848901518255600182019150602085019450602081019050620007db565b868310156200082257848901516200081e601f89168262000712565b8355505b6001600288020188555050505b505050505050565b600082825260208201905092915050565b7f696e76616c696420696e74657266616365207265717565737400000000000000600082015250565b60006200088060198362000837565b91506200088d8262000848565b602082019050919050565b60006020820190508181036000830152620008b38162000871565b9050919050565b61107e80620008ca6000396000f3fe608060405234801561001057600080fd5b506004361061009e5760003560e01c80634f6ccce7116100665780634f6ccce71461015b5780636352211e1461018b57806370a08231146101bb5780638da5cb5b146101eb57806395d89b41146102095761009e565b806301ffc9a7146100a357806306fdde03146100d357806318160ddd146100f157806323b872dd1461010f5780632f745c591461012b575b600080fd5b6100bd60048036038101906100b8919061093e565b610227565b6040516100ca9190610986565b60405180910390f35b6100db61028e565b6040516100e89190610a31565b60405180910390f35b6100f9610320565b6040516101069190610a6c565b60405180910390f35b61012960048036038101906101249190610b11565b61032d565b005b61014560048036038101906101409190610b64565b61033d565b6040516101529190610a6c565b60405180910390f35b61017560048036038101906101709190610ba4565b6103ed565b6040516101829190610a6c565b60405180910390f35b6101a560048036038101906101a09190610ba4565b61045c565b6040516101b29190610be0565b60405180910390f35b6101d560048036038101906101d09190610bfb565b61050d565b6040516101e29190610a6c565b60405180910390f35b6101f36105cb565b6040516102009190610be0565b60405180910390f35b6102116105f1565b60405161021e9190610a31565b60405180910390f35b6000806000837bffffffffffffffffffffffffffffffffffffffffffffffffffffffff19167bffffffffffffffffffffffffffffffffffffffffffffffffffffffff1916815260200190815260200160002060009054906101000a900460ff169050919050565b60606001805461029d90610c57565b80601f01602080910402602001604051908101604052809291908181526020018280546102c990610c57565b80156103165780601f106102eb57610100808354040283529160200191610316565b820191906000526020600020905b8154815290600101906020018083116102f957829003601f168201915b5050505050905090565b6000600680549050905090565b610338838383610683565b505050565b60006103488361050d565b8210610389576040517f08c379a000000000000000000000000000000000000000000000000000000000815260040161038090610cd4565b60405180910390fd5b600860008473ffffffffffffffffffffffffffffffffffffffff1673ffffffffffffffffffffffffffffffffffffffff16815260200190815260200160002082815481106103da576103d9610cf4565b5b9060005260206000200154905092915050565b60006006805490508210610436576040517f08c379a000000000000000000000000000000000000000000000000000000000815260040161042d90610d6f565b60405180910390fd5b6006828154811061044a57610449610cf4565b5b90600052602060002001549050919050565b6000806004600084815260200190815260200160002060009054906101000a900473ffffffffffffffffffffffffffffffffffffffff169050600073ffffffffffffffffffffffffffffffffffffffff168173ffffffffffffffffffffffffffffffffffffffff1603610504576040517f08c379a00000000000000000000000000000000000000000000000000000000081526004016104fb90610e01565b60405180910390fd5b80915050919050565b60008073ffffffffffffffffffffffffffffffffffffffff168273ffffffffffffffffffffffffffffffffffffffff160361057d576040517f08c379a000000000000000000000000000000000000000000000000000000000815260040161057490610e93565b60405180910390fd5b6105c4600560008473ffffffffffffffffffffffffffffffffffffffff1673ffffffffffffffffffffffffffffffffffffffff168152602001908152602001600020610832565b9050919050565b600360009054906101000a900473ffffffffffffffffffffffffffffffffffffffff1681565b60606002805461060090610c57565b80601f016020809104026020016040519081016040528092919081815260200182805461062c90610c57565b80156106795780601f1061064e57610100808354040283529160200191610679565b820191906000526020600020905b81548152906001019060200180831161065c57829003601f168201915b5050505050905090565b600073ffffffffffffffffffffffffffffffffffffffff168273ffffffffffffffffffffffffffffffffffffffff16036106f2576040517f08c379a00000000000000000000000000000000000000000000000000000000081526004016106e990610f25565b60405180910390fd5b610739600560008573ffffffffffffffffffffffffffffffffffffffff1673ffffffffffffffffffffffffffffffffffffffff168152602001908152602001600020610840565b610780600560008473ffffffffffffffffffffffffffffffffffffffff1673ffffffffffffffffffffffffffffffffffffffff168152602001908152602001600020610863565b816004600083815260200190815260200160002060006101000a81548173ffffffffffffffffffffffffffffffffffffffff021916908373ffffffffffffffffffffffffffffffffffffffff160217905550808273ffffffffffffffffffffffffffffffffffffffff168473ffffffffffffffffffffffffffffffffffffffff167f5225eac2a7facfbeb099c00a4cc7c457701324f1fd84b84b14033f9e911374a460405160405180910390a4505050565b600081600001549050919050565b6108586001826000015461088290919063ffffffff16565b816000018190555050565b60018160000160008282546108789190610f74565b9250508190555050565b6000828211156108c7576040517f08c379a00000000000000000000000000000000000000000000000000000000081526004016108be90610ff4565b60405180910390fd5b600082846108d59190611014565b90508091505092915050565b600080fd5b60007fffffffff0000000000000000000000000000000000000000000000000000000082169050919050565b61091b816108e6565b811461092657600080fd5b50565b60008135905061093881610912565b92915050565b600060208284031215610954576109536108e1565b5b600061096284828501610929565b91505092915050565b60008115159050919050565b6109808161096b565b82525050565b600060208201905061099b6000830184610977565b92915050565b600081519050919050565b600082825260208201905092915050565b60005b838110156109db5780820151818401526020810190506109c0565b60008484015250505050565b6000601f19601f8301169050919050565b6000610a03826109a1565b610a0d81856109ac565b9350610a1d8185602086016109bd565b610a26816109e7565b840191505092915050565b60006020820190508181036000830152610a4b81846109f8565b905092915050565b6000819050919050565b610a6681610a53565b82525050565b6000602082019050610a816000830184610a5d565b92915050565b600073ffffffffffffffffffffffffffffffffffffffff82169050919050565b6000610ab282610a87565b9050919050565b610ac281610aa7565b8114610acd57600080fd5b50565b600081359050610adf81610ab9565b92915050565b610aee81610a53565b8114610af957600080fd5b50565b600081359050610b0b81610ae5565b92915050565b600080600060608486031215610b2a57610b296108e1565b5b6000610b3886828701610ad0565b9350506020610b4986828701610ad0565b9250506040610b5a86828701610afc565b9150509250925092565b60008060408385031215610b7b57610b7a6108e1565b5b6000610b8985828601610ad0565b9250506020610b9a85828601610afc565b9150509250929050565b600060208284031215610bba57610bb96108e1565b5b6000610bc884828501610afc565b91505092915050565b610bda81610aa7565b82525050565b6000602082019050610bf56000830184610bd1565b92915050565b600060208284031215610c1157610c106108e1565b5b6000610c1f84828501610ad0565b91505092915050565b7f4e487b7100000000000000000000000000000000000000000000000000000000600052602260045260246000fd5b60006002820490506001821680610c6f57607f821691505b602082108103610c8257610c81610c28565b5b50919050565b7f6f776e657220696e646578206f7574206f662072616e67650000000000000000600082015250565b6000610cbe6018836109ac565b9150610cc982610c88565b602082019050919050565b60006020820190508181036000830152610ced81610cb1565b9050919050565b7f4e487b7100000000000000000000000000000000000000000000000000000000600052603260045260246000fd5b7f676c6f62616c20696e646578206f7574206f6620626f756e6400000000000000600082015250565b6000610d596019836109ac565b9150610d6482610d23565b602082019050919050565b60006020820190508181036000830152610d8881610d4c565b9050919050565b7f455243373231203a206f776e657220717565727920666f72206e6f6e2d65786960008201527f7374656e7420746f6b656e000000000000000000000000000000000000000000602082015250565b6000610deb602b836109ac565b9150610df682610d8f565b604082019050919050565b60006020820190508181036000830152610e1a81610dde565b9050919050565b7f4552433732313a204e4654732061737369676e656420746f20746865207a657260008201527f6f20616464726573730000000000000000000000000000000000000000000000602082015250565b6000610e7d6029836109ac565b9150610e8882610e21565b604082019050919050565b60006020820190508181036000830152610eac81610e70565b9050919050565b7f4572726f723a20455243373231205472616e7366657220746f20746865207a6560008201527f726f206164647265737300000000000000000000000000000000000000000000602082015250565b6000610f0f602a836109ac565b9150610f1a82610eb3565b604082019050919050565b60006020820190508181036000830152610f3e81610f02565b9050919050565b7f4e487b7100000000000000000000000000000000000000000000000000000000600052601160045260246000fd5b6000610f7f82610a53565b9150610f8a83610a53565b9250828201905080821115610fa257610fa1610f45565b5b92915050565b7f536166654d6174683a205375627472616374696f6e204f766572666c6f770000600082015250565b6000610fde601e836109ac565b9150610fe982610fa8565b602082019050919050565b6000602082019050818103600083015261100d81610fd1565b9050919050565b600061101f82610a53565b915061102a83610a53565b925082820390508181111561104257611041610f45565b5b9291505056fea2646970667358221220fcb85b5e3cd469c3244a5aa8b77ac59e1a39f20072881a39d4052ecae571155d64736f6c63430008130033",
  "immutableReferences": {},
  "source": "//SPDX-License-Identifier: MIT\r\n\r\npragma solidity ^0.8.0;\r\n\r\nimport \"./ERC721Metadata.sol\";\r\nimport \"./ERC721Enumerable.sol\";\r\n\r\n\r\ncontract ERC721Connector is ERC721Metadata,ERC721Enumerable {\r\n\r\n\r\n    constructor(string memory name ,string memory symbol) ERC721Metadata(name ,symbol){\r\n        \r\n    }\r\n}",
  "sourcePath": "D:\\nft-space\\truffle\\contracts\\ERC721Connector.sol",
  "compiler": {
    "name": "solc",
    "version": "0.8.19+commit.7dd6d404.Emscripten.clang"
  },
  "schemaVersion": "3.4.9",
  "updatedAt": "2023-03-17T11:15:27.852Z",
  "devdoc": {
    "kind": "dev",
    "methods": {},
    "version": 1
  },
  "userdoc": {
    "kind": "user",
    "methods": {},
    "version": 1
  }
}