{
  "contractName": "ERC721Enumerable",
  "abi": [
    {
      "inputs": [],
      "stateMutability": "nonpayable",
      "type": "constructor"
    },
    {
      "anonymous": false,
      "inputs": [
        {
          "indexed": true,
          "internalType": "address",
          "name": "from",
          "type": "address"
        },
        {
          "indexed": true,
          "internalType": "address",
          "name": "to",
          "type": "address"
        },
        {
          "indexed": true,
          "internalType": "uint256",
          "name": "tokenId",
          "type": "uint256"
        }
      ],
      "name": "Tranfer",
      "type": "event"
    },
    {
      "inputs": [
        {
          "internalType": "address",
          "name": "_owner",
          "type": "address"
        }
      ],
      "name": "balanceOf",
      "outputs": [
        {
          "internalType": "uint256",
          "name": "",
          "type": "uint256"
        }
      ],
      "stateMutability": "view",
      "type": "function"
    },
    {
      "inputs": [],
      "name": "owner",
      "outputs": [
        {
          "internalType": "address",
          "name": "",
          "type": "address"
        }
      ],
      "stateMutability": "view",
      "type": "function"
    },
    {
      "inputs": [
        {
          "internalType": "uint256",
          "name": "_tokenId",
          "type": "uint256"
        }
      ],
      "name": "ownerOf",
      "outputs": [
        {
          "internalType": "address",
          "name": "",
          "type": "address"
        }
      ],
      "stateMutability": "view",
      "type": "function"
    },
    {
      "inputs": [
        {
          "internalType": "bytes4",
          "name": "interfaceId",
          "type": "bytes4"
        }
      ],
      "name": "supportsInterface",
      "outputs": [
        {
          "internalType": "bool",
          "name": "",
          "type": "bool"
        }
      ],
      "stateMutability": "view",
      "type": "function"
    },
    {
      "inputs": [
        {
          "internalType": "address",
          "name": "_from",
          "type": "address"
        },
        {
          "internalType": "address",
          "name": "_to",
          "type": "address"
        },
        {
          "internalType": "uint256",
          "name": "_tokenId",
          "type": "uint256"
        }
      ],
      "name": "transferFrom",
      "outputs": [],
      "stateMutability": "nonpayable",
      "type": "function"
    },
    {
      "inputs": [
        {
          "internalType": "uint256",
          "name": "index",
          "type": "uint256"
        }
      ],
      "name": "tokenByIndex",
      "outputs": [
        {
          "internalType": "uint256",
          "name": "",
          "type": "uint256"
        }
      ],
      "stateMutability": "view",
      "type": "function"
    },
    {
      "inputs": [
        {
          "internalType": "address",
          "name": "owner",
          "type": "address"
        },
        {
          "internalType": "uint256",
          "name": "index",
          "type": "uint256"
        }
      ],
      "name": "tokenOfOwnerByIndex",
      "outputs": [
        {
          "internalType": "uint256",
          "name": "",
          "type": "uint256"
        }
      ],
      "stateMutability": "view",
      "type": "function"
    },
    {
      "inputs": [],
      "name": "totalSupply",
      "outputs": [
        {
          "internalType": "uint256",
          "name": "",
          "type": "uint256"
        }
      ],
      "stateMutability": "view",
      "type": "function"
    }
  ],
  "bytecode": "0x608060405234801561001057600080fd5b506100407f01ffc9a7a5cef8baa21ed3c5c0d7e23accb804b619e9333b597f47a0d84076e261016c60201b60201c565b33600160006101000a81548173ffffffffffffffffffffffffffffffffffffffff021916908373ffffffffffffffffffffffffffffffffffffffff1602179055506100f47f1176b7b0bba5f97eb329b5b88bee81cec6bcd49a0d96c6c4ebe3c82134a0bc437f3a6eb71757dfc6e784c1459d26270140c2c147d95ca985c80026fc5301c3eca17f8a7e378434598edc36d108689a030cbc9d7d465de4f74c71bae1028eed6a881b181861016c60201b60201c565b6101677f1176b7b0bba5f97eb329b5b88bee81cec6bcd49a0d96c6c4ebe3c82134a0bc437f3a6eb71757dfc6e784c1459d26270140c2c147d95ca985c80026fc5301c3eca17f8a7e378434598edc36d108689a030cbc9d7d465de4f74c71bae1028eed6a881b181861016c60201b60201c565b6102bd565b63ffffffff60e01b817bffffffffffffffffffffffffffffffffffffffffffffffffffffffff1916036101d4576040517f08c379a00000000000000000000000000000000000000000000000000000000081526004016101cb9061029d565b60405180910390fd5b6001600080837bffffffffffffffffffffffffffffffffffffffffffffffffffffffff19167bffffffffffffffffffffffffffffffffffffffffffffffffffffffff1916815260200190815260200160002060006101000a81548160ff02191690831515021790555050565b600082825260208201905092915050565b7f696e76616c696420696e74657266616365207265717565737400000000000000600082015250565b6000610287601983610240565b915061029282610251565b602082019050919050565b600060208201905081810360008301526102b68161027a565b9050919050565b610e0780620002cd6000396000f3fe608060405234801561001057600080fd5b50600436106100885760003560e01c80634f6ccce71161005b5780634f6ccce7146101275780636352211e1461015757806370a08231146101875780638da5cb5b146101b757610088565b806301ffc9a71461008d57806318160ddd146100bd57806323b872dd146100db5780632f745c59146100f7575b600080fd5b6100a760048036038101906100a291906107c8565b6101d5565b6040516100b49190610810565b60405180910390f35b6100c561023c565b6040516100d29190610844565b60405180910390f35b6100f560048036038101906100f091906108e9565b610249565b005b610111600480360381019061010c919061093c565b610259565b60405161011e9190610844565b60405180910390f35b610141600480360381019061013c919061097c565b610309565b60405161014e9190610844565b60405180910390f35b610171600480360381019061016c919061097c565b610378565b60405161017e91906109b8565b60405180910390f35b6101a1600480360381019061019c91906109d3565b610429565b6040516101ae9190610844565b60405180910390f35b6101bf6104e7565b6040516101cc91906109b8565b60405180910390f35b6000806000837bffffffffffffffffffffffffffffffffffffffffffffffffffffffff19167bffffffffffffffffffffffffffffffffffffffffffffffffffffffff1916815260200190815260200160002060009054906101000a900460ff169050919050565b6000600480549050905090565b61025483838361050d565b505050565b600061026483610429565b82106102a5576040517f08c379a000000000000000000000000000000000000000000000000000000000815260040161029c90610a5d565b60405180910390fd5b600660008473ffffffffffffffffffffffffffffffffffffffff1673ffffffffffffffffffffffffffffffffffffffff16815260200190815260200160002082815481106102f6576102f5610a7d565b5b9060005260206000200154905092915050565b60006004805490508210610352576040517f08c379a000000000000000000000000000000000000000000000000000000000815260040161034990610af8565b60405180910390fd5b6004828154811061036657610365610a7d565b5b90600052602060002001549050919050565b6000806002600084815260200190815260200160002060009054906101000a900473ffffffffffffffffffffffffffffffffffffffff169050600073ffffffffffffffffffffffffffffffffffffffff168173ffffffffffffffffffffffffffffffffffffffff1603610420576040517f08c379a000000000000000000000000000000000000000000000000000000000815260040161041790610b8a565b60405180910390fd5b80915050919050565b60008073ffffffffffffffffffffffffffffffffffffffff168273ffffffffffffffffffffffffffffffffffffffff1603610499576040517f08c379a000000000000000000000000000000000000000000000000000000000815260040161049090610c1c565b60405180910390fd5b6104e0600360008473ffffffffffffffffffffffffffffffffffffffff1673ffffffffffffffffffffffffffffffffffffffff1681526020019081526020016000206106bc565b9050919050565b600160009054906101000a900473ffffffffffffffffffffffffffffffffffffffff1681565b600073ffffffffffffffffffffffffffffffffffffffff168273ffffffffffffffffffffffffffffffffffffffff160361057c576040517f08c379a000000000000000000000000000000000000000000000000000000000815260040161057390610cae565b60405180910390fd5b6105c3600360008573ffffffffffffffffffffffffffffffffffffffff1673ffffffffffffffffffffffffffffffffffffffff1681526020019081526020016000206106ca565b61060a600360008473ffffffffffffffffffffffffffffffffffffffff1673ffffffffffffffffffffffffffffffffffffffff1681526020019081526020016000206106ed565b816002600083815260200190815260200160002060006101000a81548173ffffffffffffffffffffffffffffffffffffffff021916908373ffffffffffffffffffffffffffffffffffffffff160217905550808273ffffffffffffffffffffffffffffffffffffffff168473ffffffffffffffffffffffffffffffffffffffff167f5225eac2a7facfbeb099c00a4cc7c457701324f1fd84b84b14033f9e911374a460405160405180910390a4505050565b600081600001549050919050565b6106e26001826000015461070c90919063ffffffff16565b816000018190555050565b60018160000160008282546107029190610cfd565b9250508190555050565b600082821115610751576040517f08c379a000000000000000000000000000000000000000000000000000000000815260040161074890610d7d565b60405180910390fd5b6000828461075f9190610d9d565b90508091505092915050565b600080fd5b60007fffffffff0000000000000000000000000000000000000000000000000000000082169050919050565b6107a581610770565b81146107b057600080fd5b50565b6000813590506107c28161079c565b92915050565b6000602082840312156107de576107dd61076b565b5b60006107ec848285016107b3565b91505092915050565b60008115159050919050565b61080a816107f5565b82525050565b60006020820190506108256000830184610801565b92915050565b6000819050919050565b61083e8161082b565b82525050565b60006020820190506108596000830184610835565b92915050565b600073ffffffffffffffffffffffffffffffffffffffff82169050919050565b600061088a8261085f565b9050919050565b61089a8161087f565b81146108a557600080fd5b50565b6000813590506108b781610891565b92915050565b6108c68161082b565b81146108d157600080fd5b50565b6000813590506108e3816108bd565b92915050565b6000806000606084860312156109025761090161076b565b5b6000610910868287016108a8565b9350506020610921868287016108a8565b9250506040610932868287016108d4565b9150509250925092565b600080604083850312156109535761095261076b565b5b6000610961858286016108a8565b9250506020610972858286016108d4565b9150509250929050565b6000602082840312156109925761099161076b565b5b60006109a0848285016108d4565b91505092915050565b6109b28161087f565b82525050565b60006020820190506109cd60008301846109a9565b92915050565b6000602082840312156109e9576109e861076b565b5b60006109f7848285016108a8565b91505092915050565b600082825260208201905092915050565b7f6f776e657220696e646578206f7574206f662072616e67650000000000000000600082015250565b6000610a47601883610a00565b9150610a5282610a11565b602082019050919050565b60006020820190508181036000830152610a7681610a3a565b9050919050565b7f4e487b7100000000000000000000000000000000000000000000000000000000600052603260045260246000fd5b7f676c6f62616c20696e646578206f7574206f6620626f756e6400000000000000600082015250565b6000610ae2601983610a00565b9150610aed82610aac565b602082019050919050565b60006020820190508181036000830152610b1181610ad5565b9050919050565b7f455243373231203a206f776e657220717565727920666f72206e6f6e2d65786960008201527f7374656e7420746f6b656e000000000000000000000000000000000000000000602082015250565b6000610b74602b83610a00565b9150610b7f82610b18565b604082019050919050565b60006020820190508181036000830152610ba381610b67565b9050919050565b7f4552433732313a204e4654732061737369676e656420746f20746865207a657260008201527f6f20616464726573730000000000000000000000000000000000000000000000602082015250565b6000610c06602983610a00565b9150610c1182610baa565b604082019050919050565b60006020820190508181036000830152610c3581610bf9565b9050919050565b7f4572726f723a20455243373231205472616e7366657220746f20746865207a6560008201527f726f206164647265737300000000000000000000000000000000000000000000602082015250565b6000610c98602a83610a00565b9150610ca382610c3c565b604082019050919050565b60006020820190508181036000830152610cc781610c8b565b9050919050565b7f4e487b7100000000000000000000000000000000000000000000000000000000600052601160045260246000fd5b6000610d088261082b565b9150610d138361082b565b9250828201905080821115610d2b57610d2a610cce565b5b92915050565b7f536166654d6174683a205375627472616374696f6e204f766572666c6f770000600082015250565b6000610d67601e83610a00565b9150610d7282610d31565b602082019050919050565b60006020820190508181036000830152610d9681610d5a565b9050919050565b6000610da88261082b565b9150610db38361082b565b9250828203905081811115610dcb57610dca610cce565b5b9291505056fea2646970667358221220b548b96df058d56e040f786737a3e4ae4d1b1abd08a1b2f34367d0eb56d6432764736f6c63430008130033",
  "immutableReferences": {},
  "source": "//SPDX-License-Identifier: MIT\r\n\r\npragma solidity ^0.8.0;\r\n\r\nimport \"./ERC721.sol\";\r\nimport \"./interfaces/IERC721Enumerable.sol\";\r\n\r\ncontract ERC721Enumerable is ERC721, IERC721Enumerable {\r\n\r\n    uint256[] private _allTokens;\r\n\r\n    mapping(uint256 => uint256) private  _allTokensIndex;\r\n    mapping (address => uint256[]) private _ownedTokens;\r\n    mapping(uint256 => uint256) private _onwedTokensIndex;\r\n\r\n   \r\n    constructor(){\r\n         _registerInterface(bytes4(keccak256(\"balanceOf(bytes4)\")^\r\n         keccak256('ownerOf(bytes4)') ^ keccak256('tranferFrom(bytes4)')));\r\n    }\r\n\r\n    function tokenByIndex(uint index) public override view returns(uint256){\r\n        require(index< _allTokens.length,\"global index out of bound\");\r\n        return _allTokens[index];\r\n    }\r\n\r\n    function tokenOfOwnerByIndex(address owner,uint256 index) public override view returns(uint256){\r\n        require(index<balanceOf(owner),\"owner index out of range\");\r\n        return _ownedTokens[owner][index];\r\n    }\r\n\r\n    function totalSupply() external override view returns (uint256){\r\n\r\n        return _allTokens.length;\r\n    }\r\n\r\n\r\n    function _mint(address to ,uint256 tokenId) internal  override(ERC721){\r\n        super._mint(to,tokenId);\r\n\r\n        _addTokensToAllTokenEnumeration(tokenId);\r\n        _addTokensToOwnerEnumeration(to,tokenId);\r\n\r\n\r\n    }\r\n\r\n    function _addTokensToOwnerEnumeration(address to ,uint256 tokenId) private{\r\n        _onwedTokensIndex[tokenId] = _ownedTokens[to].length ;\r\n        _ownedTokens[to].push(tokenId);\r\n    }\r\n\r\n    function _addTokensToAllTokenEnumeration(uint256 tokenId) private{\r\n        _allTokensIndex[tokenId] = _allTokens.length;\r\n        _allTokens.push(tokenId);\r\n    }\r\n\r\n\r\n\r\n}",
  "sourcePath": "D:\\nft-space\\truffle\\contracts\\ERC721Enumerable.sol",
  "compiler": {
    "name": "solc",
    "version": "0.8.19+commit.7dd6d404.Emscripten.clang"
  },
  "schemaVersion": "3.4.9",
  "updatedAt": "2023-03-17T11:15:27.860Z",
  "devdoc": {
    "kind": "dev",
    "methods": {},
    "version": 1
  },
  "userdoc": {
    "kind": "user",
    "methods": {},
    "version": 1
  }
}